:10000000020311C0E0C0D075D000C000C006C2C657
:100010007808E6FE08E64E6006E61618700116D06F
:0800200006D000D0D0D0E03280
:10002B0002000375C870E4F5CDF5CC75CBBC75CA71
:10003B00CD43A820D2C8D2AF2212055C12002E22CB
:10004B0002004EC0E0C083C082C2AFE59154C064D1
:10005B00C0700553913F8058E59154C06440705077
:10006B005391BF75F1FFF5F275F36A75F40175F8ED
:10007B00AF30FCFDD2FE20FEFD908001E5FAF0A32F
:10008B00E5FBF0A3E5FCF0A3E5FDF0D2FE20FEFDC1
:10009B00908005E5FAF0A3E5FBF0A3E5FCF0A3E502
:1000AB00FDF0D2FE20FEFD75F80090800E7401F07D
:1000BB00E5915420642070035391DFE59154106453
:1000CB001070035391EFE591540864087006539137
:1000DB00F753E8E0E5915404640470065391FB4335
:0B00EB008F04D2AFD082D083D0E0326F
:1000F800FFFF4457494E543502035890800FEEF0E5
:10010800A3EFF0A312046190800FE0A3E0540190E4
:100118008016F090800FE0FEA3E0FFEEC313FEEF21
:1001280013FF90800FEEF0A3EFF0E4F5F190800F4D
:10013800E0FEA3E0EEF5F290800FE0A3E0F5F375A2
:10014800F40175F88F30FCFD908016E0603C9080DB
:1001580014E0FEA3E0D39400EE9400402D75F883DC
:10016800908011E475F00112044A120409F5FC901C
:100178008011E475F00112044A120409F5FDD2FE5B
:1001880090801474FFF5F012043475F88F90801481
:10019800E0FEA3E0C39402EE9400404B908011E48B
:1001A80075F00112044A120409F5FA908011E475F9
:1001B800F00112044A120409F5FB908011E475F06D
:1001C8000112044A120409F5FC908011E475F0014B
:1001D80012044A120409F5FDD2FE90801474FF75CA
:1001E800F0FE12043480A6908014E0FEA3E04E6076
:1001F8002375F88C908011E475F00112044A1204FA
:1002080009F5FA908011E475F00112044A12040904
:10021800F5FBD2FEE4F5F82290800FEEF0A3EFF0A4
:10022800A312046190800FE0A3E05401908016F0BF
:1002380090800FE0FEA3E0FFEEC313FEEF13FF90E4
:10024800800FEEF0A3EFF0E4F5F190800FE0FEA34D
:10025800E0EEF5F290800FE0A3E0F5F375F4017598
:10026800F8AF30FCFD908014E0FEA3E0D39400EEDC
:100278009400500302030DD2FE20FEFD908016E08C
:10028800703D908014E0FEA3E0D39400EE9400400B
:100298002E908011E475F00112044AE5FA12042246
:1002A800908011E475F00112044AE5FB12042290D3
:1002B80080167401F090801474FFF5F012043490E5
:1002C8008016E0B4019F908014E0FEA3E0D3940070
:1002D800EE94004090908011E475F00112044AE514
:1002E800FC120422908011E475F00112044AE5FD25
:1002F800120422E4908016F090801474FFF5F01236
:10030800043402026DE4F5F822787FE4F6D8FD752E
:10031800810902035802046AE493A3F8E493A34012
:1003280003F68001F208DFF48029E493A3F8540768
:10033800240CC8C333C4540F4420C8834004F45663
:10034800800146F6DFE4800B01020408102040809B
:100358009005AEE47E019360BCA3FF543F30E509ED
:10036800541FFEE493A360010ECF54C025E060A89B
:1003780040B8E493A3FAE493A3F8E493A3C8C5822E
:10038800C8CAC583CAF0A3C8C582C8CAC583CADF9C
:10039800E9DEE780BEC2AF75F1FFE4F5F275F364FC
:1003A80075F40175F88F30FCFD75FA08E4F5FBF576
:1003B800FCF5FDD2FE20FEFD908000E0F5FAE4F5A4
:1003C800FBF5FCF5FDD2FE20FEFD908001E0F5FA7C
:1003D800A3E0F5FBA3E0F5FCA3E0F5FDD2FE20FECB
:1003E800FD908005E0F5FAA3E0F5FBA3E0F5FCA39A
:1003F800E0F5FDD2FE20FEFDD2AFE4F5F8438F0410
:1004080022BB010689828A83E0225002E722BBFED2
:1004180002E32289828A83E49322BB010689828AC5
:1004280083F0225002F722BBFE01F322C5F0F8A3A5
:10043800E028F0C5F0F8E582158270021583E038EF
:10044800F022F8E0FBA3A3E0F925F0F0E58215829D
:1004580070021583E0FA38F022EBF0A3EAF0A3E982
:10046800F0221200441204BFD2AF7B017A807901D6
:10047800908014E4F0A37405F07F007E301202200F
:1004880090800AE06405702912039DE4908009F0C9
:10049800A3F0A3F0A3F07B017A807909908014F08F
:1004A800A304F07F047E301201037F147E0012053E
:1004B8000F12058F80B22275F1FFE4F5F275F36033
:1004C80075F40175F88F30FCFD75FA1A75FB177510
:1004D800FC0FE4F5FDD2FE20FEFDE4F5FAF5FBF590
:1004E800FCF5FDD2FE20FEFD75FAFF75FBFF75FCDD
:1004F800FF75FDFFD2FE20FEFDE4F5F8758FA0E53F
:100508008F20E5FBD2B92290800FEEF0A3EFF0E444
:10051800A3F0A3F090800FE0FEA3E0FFA3E0FCA30C
:10052800E0C39FEC9E502CE4A3F0A3F0908013E06E
:10053800FEA3E0C394B8EE940B500C908013E475BE
:10054800F00112043480E5908011E475F001120482
:100558003480C122C2AFC2D3C2D4E4F58E75C8704C
:10056800F59375940175950275C9E075F901F5F86B
:1005780075F901F5A8F5B8F59AF5A9F5B975B7575C
:100588007580FC53C9FD2290800EE064017016F05E
:100598007B017A807901908014F0A37404F07F00C5
:1005A8007E30120103224180000041800E000208C3
:0305B80000000040
:00000001FF
